{
  "contractName": "DonationContract",
  "abi": [
    {
      "inputs": [],
      "stateMutability": "nonpayable",
      "type": "constructor"
    },
    {
      "anonymous": false,
      "inputs": [
        {
          "indexed": false,
          "internalType": "address",
          "name": "donor",
          "type": "address"
        },
        {
          "indexed": false,
          "internalType": "uint256",
          "name": "amount",
          "type": "uint256"
        }
      ],
      "name": "DonationReceived",
      "type": "event"
    },
    {
      "inputs": [
        {
          "internalType": "address",
          "name": "",
          "type": "address"
        }
      ],
      "name": "donationsByUser",
      "outputs": [
        {
          "internalType": "uint256",
          "name": "",
          "type": "uint256"
        }
      ],
      "stateMutability": "view",
      "type": "function",
      "constant": true
    },
    {
      "inputs": [],
      "name": "owner",
      "outputs": [
        {
          "internalType": "address",
          "name": "",
          "type": "address"
        }
      ],
      "stateMutability": "view",
      "type": "function",
      "constant": true
    },
    {
      "inputs": [],
      "name": "totalDonations",
      "outputs": [
        {
          "internalType": "uint256",
          "name": "",
          "type": "uint256"
        }
      ],
      "stateMutability": "view",
      "type": "function",
      "constant": true
    },
    {
      "inputs": [],
      "name": "donate",
      "outputs": [],
      "stateMutability": "payable",
      "type": "function",
      "payable": true
    },
    {
      "inputs": [],
      "name": "getTotalDonations",
      "outputs": [
        {
          "internalType": "uint256",
          "name": "",
          "type": "uint256"
        }
      ],
      "stateMutability": "view",
      "type": "function",
      "constant": true
    },
    {
      "inputs": [],
      "name": "withdraw",
      "outputs": [],
      "stateMutability": "nonpayable",
      "type": "function"
    }
  ],
  "bytecode": "0x608060405234801561001057600080fd5b50336000806101000a81548173ffffffffffffffffffffffffffffffffffffffff021916908373ffffffffffffffffffffffffffffffffffffffff160217905550600060018190555061060b806100686000396000f3fe6080604052600436106100555760003560e01c80633ccfd60b1461005a578063777c658f146100715780638da5cb5b1461009c578063bbeaeadd146100c7578063de2ed89314610104578063ed88c68e1461012f575b600080fd5b34801561006657600080fd5b5061006f610139565b005b34801561007d57600080fd5b50610086610238565b60405161009391906104d1565b60405180910390f35b3480156100a857600080fd5b506100b1610242565b6040516100be919061044d565b60405180910390f35b3480156100d357600080fd5b506100ee60048036038101906100e99190610386565b610266565b6040516100fb91906104d1565b60405180910390f35b34801561011057600080fd5b5061011961027e565b60405161012691906104d1565b60405180910390f35b610137610284565b005b60008054906101000a900473ffffffffffffffffffffffffffffffffffffffff1673ffffffffffffffffffffffffffffffffffffffff163373ffffffffffffffffffffffffffffffffffffffff16146101c7576040517f08c379a00000000000000000000000000000000000000000000000000000000081526004016101be906104b1565b60405180910390fd5b60008054906101000a900473ffffffffffffffffffffffffffffffffffffffff1673ffffffffffffffffffffffffffffffffffffffff166108fc479081150290604051600060405180830381858888f1935050505015801561022d573d6000803e3d6000fd5b506000600181905550565b6000600154905090565b60008054906101000a900473ffffffffffffffffffffffffffffffffffffffff1681565b60026020528060005260406000206000915090505481565b60015481565b600034116102c7576040517f08c379a00000000000000000000000000000000000000000000000000000000081526004016102be90610491565b60405180910390fd5b34600160008282546102d991906104fd565b9250508190555034600260003373ffffffffffffffffffffffffffffffffffffffff1673ffffffffffffffffffffffffffffffffffffffff168152602001908152602001600020600082825461032f91906104fd565b925050819055507f264f630d9efa0d07053a31163641d9fcc0adafc9d9e76f1c37c2ce3a558d2c523334604051610367929190610468565b60405180910390a1565b600081359050610380816105be565b92915050565b60006020828403121561039857600080fd5b60006103a684828501610371565b91505092915050565b6103b881610553565b82525050565b60006103cb601f836104ec565b91507f446f6e6174696f6e206d7573742062652067726561746572207468616e2030006000830152602082019050919050565b600061040b6017836104ec565b91507f4f6e6c79206f776e65722063616e2077697468647261770000000000000000006000830152602082019050919050565b61044781610585565b82525050565b600060208201905061046260008301846103af565b92915050565b600060408201905061047d60008301856103af565b61048a602083018461043e565b9392505050565b600060208201905081810360008301526104aa816103be565b9050919050565b600060208201905081810360008301526104ca816103fe565b9050919050565b60006020820190506104e6600083018461043e565b92915050565b600082825260208201905092915050565b600061050882610585565b915061051383610585565b9250827fffffffffffffffffffffffffffffffffffffffffffffffffffffffffffffffff038211156105485761054761058f565b5b828201905092915050565b600061055e82610565565b9050919050565b600073ffffffffffffffffffffffffffffffffffffffff82169050919050565b6000819050919050565b7f4e487b7100000000000000000000000000000000000000000000000000000000600052601160045260246000fd5b6105c781610553565b81146105d257600080fd5b5056fea2646970667358221220f8299c8d8b1092105880ead644267fb613349e06b752e01b19f0f335d8bc58dc64736f6c63430008000033",
  "immutableReferences": {},
  "source": "// SPDX-License-Identifier: MIT\r\npragma solidity ^0.8.0;\r\n\r\ncontract DonationContract {\r\n    address public owner; // Contract deployer is the owner\r\n    uint256 public totalDonations; // Tracks total Ether donated (in wei)\r\n    mapping(address => uint256) public donationsByUser; // Tracks donations per user\r\n\r\n    // Event to log donations\r\n    event DonationReceived(address donor, uint256 amount);\r\n\r\n    constructor() {\r\n        owner = msg.sender; // Set owner to the deployer\r\n        totalDonations = 0;\r\n    }\r\n\r\n    // State-changing function: Donate Ether (requires transaction with value)\r\n    function donate() public payable {\r\n        require(msg.value > 0, \"Donation must be greater than 0\");\r\n        totalDonations += msg.value;\r\n        donationsByUser[msg.sender] += msg.value;\r\n        emit DonationReceived(msg.sender, msg.value);\r\n    }\r\n\r\n    // Read-only (view) function: Get total donations\r\n    function getTotalDonations() public view returns (uint256) {\r\n        return totalDonations;\r\n    }\r\n\r\n    // State-changing function: Owner withdraws all funds\r\n    function withdraw() public {\r\n        require(msg.sender == owner, \"Only owner can withdraw\");\r\n        payable(owner).transfer(address(this).balance);\r\n        totalDonations = 0; // Reset total after withdrawal\r\n    }\r\n}\r\n",
  "sourcePath": "C:\\Users\\youss\\OneDrive - Alexandria University\\College\\7th semester\\Security of Distributed Systems\\Project\\MyTruffleProject\\contracts\\DonationContract.sol",
  "compiler": {
    "name": "solc",
    "version": "0.8.0+commit.c7dfd78e.Emscripten.clang"
  },
  "schemaVersion": "3.4.16",
  "updatedAt": "2025-12-03T11:20:47.749Z",
  "networkType": "ethereum",
  "devdoc": {
    "kind": "dev",
    "methods": {},
    "version": 1
  },
  "userdoc": {
    "kind": "user",
    "methods": {},
    "version": 1
  }
}